000LW LOGISTICA BH                    SP EQUIP. PROTEC. AO TRAB. MRO LTDA0202180952COB020209520                                                                           
350COBRA020209520                                                                                                                                                         
35113559178000208LW LOGISTICA E TRANSPORTES LTDA - EPP                                                                                                                    
352LWH       0UNI02018000130202201815022018000000000197686COB00000000002372200000000000000015022018000000000000000BANCO ITAU S/A                     3076 00000112790 I   
353LWH       0000100000001462000000000019768602022018596091230005095960912300122013559178000208                                                                           
3540010001597916012018000090000000000128253659609123000509                                                                                                                
3540010001598016012018000050000000000067482059609123000509                                                                                                                
3540010001598116012018000020000000000010020859609123000509                                                                                                                
3540010001598216012018000050000000000002905659609123000509                                                                                                                
3540010001598316012018000010000000000000126059609123000509                                                                                                                
3540010001598416012018000030000000000000110059609123000509                                                                                                                
3540010001598516012018000010000000000001824059609123000509                                                                                                                
3540010001598616012018000090000000000001785559609123000509                                                                                                                
3540010001598716012018000220000000000016784759609123000509                                                                                                                
3540010001598816012018000060000000000001135859609123000509                                                                                                                
3540010001598916012018001300000000000044990159609123000509                                                                                                                
3540010001599016012018000010000000000001866059609123000509                                                                                                                
3540010001599116012018014232800000000014232859609123000509                                                                                                                
3540010001599216012018000500000000000027812659609123000509                                                                                                                
3540010001599316012018000030000000000015273859609123000509                                                                                                                
3540010001599416012018000010000000000000360059609123000509                                                                                                                
3540010001599516012018000040000000000001994059609123000509                                                                                                                
3540010001599616012018000090000000000008953259609123000509                                                                                                                
3540010001599716012018000010000000000001163459609123000509                                                                                                                
3540010001599816012018000050000000000050947559609123000509                                                                                                                
3540010001599916012018000020000000000000020059609123000509                                                                                                                
3540010001600016012018000050000000000060764659609123000509                                                                                                                
3540010001600116012018000030000000000002224059609123000509                                                                                                                
3540010001600216012018000030000000000000212059609123000509                                                                                                                
3540010001600316012018000020000000000018375659609123000509                                                                                                                
3540010001600416012018000050000000000011654859609123000509                                                                                                                
3540010001600516012018000120000000000010626959609123000509                                                                                                                
3540010001600616012018000010000000000000295059609123000509                                                                                                                
3540010001600716012018000010000000000001712659609123000509                                                                                                                
3540010001600816012018000080000000000207021559609123000509                                                                                                                
3540010001600916012018000020000000000001253059609123000509                                                                                                                
3540010001601016012018000030000000000013773259609123000509                                                                                                                
3540010001601116012018000010000000000005113059609123000509                                                                                                                
3540010001601216012018000020000000000006100759609123000509                                                                                                                
3540010001601316012018000050000000000004151459609123000509                                                                                                                
3540010001601416012018000050000000000006140759609123000509                                                                                                                
3540010001601516012018000020000000000011741859609123000509                                                                                                                
3540010001601616012018000100000000000008509659609123000509                                                                                                                
3540010001601716012018000010000000000000296859609123000509                                                                                                                
3540010001601816012018000030000000000003188959609123000509                                                                                                                
3540010001601916012018000010000000000002741659609123000509                                                                                                                
3540010001602016012018000080000000000000256059609123000509                                                                                                                
3540010001602116012018000120000000000002280059609123000509                                                                                                                
3540010001602216012018000030000000000018743759609123000509                                                                                                                
3540010001602316012018000010000000000000235859609123000509                                                                                                                
3540010001602416012018000010000000000000372059609123000509                                                                                                                
3540010001602516012018000330000000000005065559609123000509                                                                                                                
3540010001602616012018000050000000000005567559609123000509                                                                                                                
3540010001602716012018001660000000000055304359609123000509                                                                                                                
3540010001602816012018000010000000000013383059609123000509                                                                                                                
3540010001602916012018000110000000000011767959609123000509                                                                                                                
3540010001603016012018000010000000000000693659609123000509                                                                                                                
3540010001603116012018000030000000000001180559609123000509                                                                                                                
3540010001603216012018000070000000000002361059609123000509                                                                                                                
000LW LOGISTICA BH                    SP EQUIP. PROTEC. AO TRAB. MRO LTDA0202180952COB020209520                                                                           
350COBRA020209520                                                                                                                                                         
35113559178000208LW LOGISTICA E TRANSPORTES LTDA - EPP                                                                                                                    
352LWH       0UNI02018000140202201815022018000000000107312COB00000000000482900000000000000015022018000000000000000BANCO ITAU S/A                     3076 00000112790 I   
353LWH       0000100000001457600000000001938416012018596091230005095960912300181513559178000208                                                                           
3540010001596316012018000020000000000002219159609123000509                                                                                                                
3540010001597616012018000010000000000000559659609123000509                                                                                                                
353LWH       0000100000001462100000000002273102022018596091230005095960912300068113559178000208                                                                           
3540010001597116012018000050000000000006765059609123000509                                                                                                                
3540010001597716012018000030000000000002175059609123000509                                                                                                                
3540010001603316012018000200000000000010217459609123000509                                                                                                                
3540010001603416012018000100000000000012800059609123000509                                                                                                                
353LWH       0000100000001462200000000000936002022018596091230005095960912300157213559178000208                                                                           
3540010001597817012018000130000000000002655059609123000509                                                                                                                
353LWH       0000100000001462300000000002200702022018596091230005095960912300068113559178000208                                                                           
3540010001603519012018000100000000000000675059609123000509                                                                                                                
3540010001603619012018000100000000000005600059609123000509                                                                                                                
3540010001603919012018000200000000000001912559609123000509                                                                                                                
353LWH       0000100000001462400000000001425202022018596091230005093359251004010513559178000208                                                                           
3540010001604023012018000100000000000004988059609123000509                                                                                                                
3540010001604323012018000020000000000000860059609123000509                                                                                                                
3540010001604923012018000010000000000000516059609123000509                                                                                                                
3540010001605123012018000130000000000008353959609123000509                                                                                                                
3540010001605323012018000010000000000000770059609123000509                                                                                                                
353LWH       0000100000001462500000000001957802022018596091230005095960912300122013559178000208                                                                           
3540010001603702022018000020000000000002007059609123000509                                                                                                                
3540010001603802022018000010000000000000242059609123000509                                                                                                                
3540010001605423012018000100000000000004307059609123000509                                                                                                                
3540010001605523012018000060000000000002096059609123000509                                                                                                                
3540010001605623012018000010000000000000515159609123000509                                                                                                                
3540010001605723012018000010000000000000303659609123000509                                                                                                                
3540010001605823012018000010000000000000303659609123000509                                                                                                                
3550002000000000304998                                                                                                                                                    