000LW LOGISTICA SP                    SP EQUIP. DE PROT TRAB E MRO LTDA  0409181707COB040917070                                                                           
350COBRA040917070                                                                                                                                                         
35113559178000119LW LOGISTICA E TRANSPORTES LTDA                                                                                                                          
352LWX       0UNI02018001820409201814092018000000000308201COB00000000003698400000000000000014092018000000000000000BANCO ITAU S/A                     9293 00008989880 I   
353LWX       0000100000001503100000000028500028082018596091230012202908235400010413559178000119                                                                           
3540010058234228082018000510000000000040827059609123001220                                                                                                                
3540010058237828082018007640000000000641473559609123001220                                                                                                                
353LWX       0000100000001503200000000002320129082018034967780001215960912300122013559178000119                                                                           
3540030002730129082018000690000000000079118403496778000121                                                                                                                
3540030002738529082018001860000000000072950403496778000121                                                                                                                
3540030002735329082018001080000000000145224003496778000121                                                                                                                
3550001000000000308201                                                                                                                                                    