000LW LOGISTICA BH                    SP EQUIP. PROTEC. AO TRAB. MRO LTDA0312181712COB031217120                                                                           
350COBRA031217120                                                                                                                                                         
35113559178000208LW LOGISTICA E TRANSPORTES LTDA - EPP                                                                                                                    
352LWH       0UNI02018001110312201817122018000000001540519COB00000000000626100000000000000017122018000000000000000BANCO ITAU S/A                     3076 00000112790 I   
353LWH       0000100000001602600000000001150319112018596091230006815960912300181513559178000208                                                                           
3540010012158414112018000010000000000001722059609123000681                                                                                                                
353LWH       0000100000001607600000000002155829112018711871650001625960912300181513559178000208                                                                           
3540020002686029112018000450000000000013902071187165000162                                                                                                                
3540020002686129112018000150000000000013250071187165000162                                                                                                                
3540020002686229112018000150000000000004634071187165000162                                                                                                                
3540020002686329112018000150000000000004634071187165000162                                                                                                                
3540020002686429112018000300000000000034060071187165000162                                                                                                                
353LWH       0000100000001607800000000003100930112018596091230006815960912300181513559178000208                                                                           
3540010012174030112018000020000000000000785659609123000681                                                                                                                
3540010012174130112018000040000000000003592659609123000681                                                                                                                
3540010012174330112018000060000000000001623659609123000681                                                                                                                
3540010012182830112018000120000000000007296059609123000681                                                                                                                
3540010012182930112018000010000000000003855359609123000681                                                                                                                
3540010012183030112018000010000000000000547959609123000681                                                                                                                
3540010012183130112018000010000000000000485059609123000681                                                                                                                
3540010012183230112018000080000000000018437159609123000681                                                                                                                
3540010012183330112018000200000000000031494059609123000681                                                                                                                
3540010012193030112018000020000000000000149259609123000681                                                                                                                
3540010012174230112018000010000000000000062059609123000681                                                                                                                
353LWH       0000100000001607900000000001479830112018596091230006815960912300122013559178000208                                                                           
3540010012192830112018000080000000000001623659609123000681                                                                                                                
353LWH       0000100000001608000000000003112403122018596091230006813359251003154813559178000208                                                                           
3540010012163714112018000070000000000012990059609123000681                                                                                                                
3540010012163914112018000010000000000000396159609123000681                                                                                                                
3540010012164514112018000010000000000002734059609123000681                                                                                                                
3540010012164814112018000040000000000006334359609123000681                                                                                                                
3540010012165514112018000010000000000001977659609123000681                                                                                                                
3540010012166514112018000040000000000007237059609123000681                                                                                                                
3540010012168114112018000010000000000000770059609123000681                                                                                                                
3540010012171121112018000010000000000000881259609123000681                                                                                                                
3540010012171321112018000010000000000001824059609123000681                                                                                                                
3540010012171921112018000010000000000000456059609123000681                                                                                                                
3540010012172221112018000010000000000001321859609123000681                                                                                                                
3540010012173021112018000020000000000015690559609123000681                                                                                                                
3540010012173421112018000030000000000006083259609123000681                                                                                                                
3540010012173721112018000020000000000000456059609123000681                                                                                                                
353LWH       0000100000001608100000000002994603122018596091230006811514430600698713559178000208                                                                           
3540010012161614112018000050000000000013447059609123000681                                                                                                                
353LWH       0000100000001608200000000002597603122018596091230006813359251000341213559178000208                                                                           
3540010012163814112018000010000000000005496859609123000681                                                                                                                
3540010012164014112018000010000000000001040859609123000681                                                                                                                
3540010012165014112018000120000000000028150059609123000681                                                                                                                
3540010012167314112018000020000000000028197059609123000681                                                                                                                
3540010012168014112018000010000000000000036159609123000681                                                                                                                
3540010012168214112018000050000000000011504559609123000681                                                                                                                
3540010012169719112018000050000000000008400059609123000681                                                                                                                
3540010012169819112018000080000000000012600059609123000681                                                                                                                
3540010012170319112018000400000000000024745059609123000681                                                                                                                
3540010012172519112018000010000000000001167059609123000681                                                                                                                
353LWH       0000100000001608300000000002675703122018596091230006813359251000449413559178000208                                                                           
3540010012163414112018000080000000000002984059609123000681                                                                                                                
3540010012166614112018000050000000000003301059609123000681                                                                                                                
3540010012166814112018000010000000000015665059609123000681                                                                                                                
3540010012166914112018000010000000000015665059609123000681                                                                                                                
3540010012167014112018000010000000000003133059609123000681                                                                                                                
3540010012167114112018000010000000000003136059609123000681                                                                                                                
3540010012167414112018000010000000000006266059609123000681                                                                                                                
3540010012168714112018000030000000000013518059609123000681                                                                                                                
3540010012168814112018000090000000000005775059609123000681                                                                                                                
3540010012170419112018000030000000000013680059609123000681                                                                                                                
3540010012170519112018000070000000000035740259609123000681                                                                                                                
3540010012170619112018000010000000000014037059609123000681                                                                                                                
3540010012171419112018000010000000000004560059609123000681                                                                                                                
3540010012171519112018000020000000000009120059609123000681                                                                                                                
3540010012171819112018000010000000000000456059609123000681                                                                                                                
3540010012172119112018000010000000000002280059609123000681                                                                                                                
353LWH       0000100000001608400000000001889803122018596091230006813359251001593313559178000208                                                                           
3540010012164414112018000080000000000001421859609123000681                                                                                                                
3540010012164614112018000010000000000002734059609123000681                                                                                                                
3540010012164714112018000020000000000001155059609123000681                                                                                                                
3540010012166414112018000200000000000007036359609123000681                                                                                                                
3540010012174421112018000010000000000001171259609123000681                                                                                                                
3540010012177021112018000020000000000002965059609123000681                                                                                                                
3540010012178221112018000020000000000001083059609123000681                                                                                                                
3540010012179221112018000040000000000001844659609123000681                                                                                                                
3540010012179321112018000010000000000002426059609123000681                                                                                                                
353LWH       0000100000001608500000000002798003122018596091230006813359251000350113559178000208                                                                           
3540010012164314112018000030000000000000860059609123000681                                                                                                                
3540010012165314112018000200000000000116527059609123000681                                                                                                                
3540010012165414112018000010000000000015690559609123000681                                                                                                                
3540010012171619112018000020000000000001458059609123000681                                                                                                                
3540010012172719112018000030000000000000860059609123000681                                                                                                                
353LWH       0000100000001608600000000003143903122018596091230006813359251001640913559178000208                                                                           
3540010012167221112018000030000000000043862059609123000681                                                                                                                
3540010012168414112018000290000000000008940059609123000681                                                                                                                
3540010012168914112018000410000000000276952959609123000681                                                                                                                
353LWH       0000100000001608700000000002878003122018596091230006813359251004479813559178000208                                                                           
3540010012167514112018000100000000000075192059609123000681                                                                                                                
3540010012167614112018000030000000000034463059609123000681                                                                                                                
3540010012167714112018000100000000000125320059609123000681                                                                                                                
3540010012168514112018000190000000000005960059609123000681                                                                                                                
353LWH       0000100000001608800000000002539703122018596091230006813359251004134913559178000208                                                                           
3540010012168314112018000150000000000004470059609123000681                                                                                                                
353LWH       0000100000001608900000000003519603122018596091230006813359251000074013559178000208                                                                           
3540010012166714112018000150000000000009237659609123000681                                                                                                                
3540010012167814112018000030000000000007206359609123000681                                                                                                                
3540010012167914112018000050000000000001509259609123000681                                                                                                                
3540010012168614112018000020000000000004239059609123000681                                                                                                                
3540010012172021112018000100000000000009120059609123000681                                                                                                                
3540010012173921112018000100000000000028627259609123000681                                                                                                                
3540010012175821112018000200000000000010554059609123000681                                                                                                                
3540010012176021112018000470000000000051308059609123000681                                                                                                                
3540010012178121112018000150000000000018047459609123000681                                                                                                                
3540010012179021112018000010000000000003601859609123000681                                                                                                                
3540010012179721112018000010000000000012927059609123000681                                                                                                                
3540010012182321112018000030000000000003393059609123000681                                                                                                                
353LWH       0000100000001609000000000004155003122018596091230006813359251004010513559178000208                                                                           
3540010012165814112018000540000000000062096659609123000681                                                                                                                
3540010012173521112018000060000000000020588859609123000681                                                                                                                
353LWH       0000100000001609100000000005379003122018596091230006813359251004126813559178000208                                                                           
3540010012165614112018000150000000000048864659609123000681                                                                                                                
3540010012165714112018000100000000000005909859609123000681                                                                                                                
3540010012165914112018000170000000000006547259609123000681                                                                                                                
3540010012166014112018000160000000000142842659609123000681                                                                                                                
3540010012166114112018000050000000000004824659609123000681                                                                                                                
3540010012166214112018000080000000000011938059609123000681                                                                                                                
3540010012166314112018000100000000000003725159609123000681                                                                                                                
3540010012169621112018000010000000000000252059609123000681                                                                                                                
3540010012170121112018000020000000000000413959609123000681                                                                                                                
3540010012170921112018000030000000000011375859609123000681                                                                                                                
3540010012172421112018000010000000000001824059609123000681                                                                                                                
3540010012172921112018000170000000000007074059609123000681                                                                                                                
3540010012173321112018000100000000000007516759609123000681                                                                                                                
3540010012173621112018000020000000000011874059609123000681                                                                                                                
3540010012176121112018000030000000000005930459609123000681                                                                                                                
3540010012176221112018000010000000000003813659609123000681                                                                                                                
3540010012179821112018000010000000000001351859609123000681                                                                                                                
3540010012180221112018000040000000000008291059609123000681                                                                                                                
3540010012180721112018000010000000000003897059609123000681                                                                                                                
3540010012181821112018000130000000000024374859609123000681                                                                                                                
353LWH       0000100000001609200000000001352303122018596091230006816039466500031013559178000208                                                                           
3540010012172620112018000040000000000002501459609123000681                                                                                                                
353LWH       0000100000001609300000000002212703122018596091230006813359251002174713559178000208                                                                           
3540010012169920112018000010000000000002541059609123000681                                                                                                                
3540010012170020112018000010000000000005071359609123000681                                                                                                                
353LWH       0000100000001609400000000002411203122018596091230006813359251001640913559178000208                                                                           
3540010012170720112018000620000000000099146159609123000681                                                                                                                
3540010012171220112018000100000000000013680059609123000681                                                                                                                
3540010012172320112018000060000000000009360059609123000681                                                                                                                
3540010012173820112018000020000000000005472059609123000681                                                                                                                
3540010012174620112018000030000000000008520059609123000681                                                                                                                
353LWH       0000100000001609500000000002531403122018596091230006813359251004479813559178000208                                                                           
3540010012170220112018000010000000000002734059609123000681                                                                                                                
3540010012170820112018000050000000000012896059609123000681                                                                                                                
3540010012171020112018000090000000000047769059609123000681                                                                                                                
3540010012171720112018000170000000000022800059609123000681                                                                                                                
3540010012173120112018000120000000000002313759609123000681                                                                                                                
3540010012174720112018000010000000000000160259609123000681                                                                                                                
3540010012174820112018000010000000000001459959609123000681                                                                                                                
3540010012174920112018000010000000000000050559609123000681                                                                                                                
3540010012175020112018000010000000000000168959609123000681                                                                                                                
3540010012175120112018000010000000000003156359609123000681                                                                                                                
3540010012175220112018000010000000000000986459609123000681                                                                                                                
3540010012175320112018000020000000000000749259609123000681                                                                                                                
3540010012175420112018000030000000000017361459609123000681                                                                                                                
3540010012175520112018000010000000000001604759609123000681                                                                                                                
3540010012175620112018000010000000000000356559609123000681                                                                                                                
3540010012175720112018000050000000000002307059609123000681                                                                                                                
353LWH       0000100000001609600000000002489603122018596091230006813359251000490713559178000208                                                                           
3540010012162921112018000150000000000003039059609123000681                                                                                                                
353LWH       0000100000001609700000000004462803122018596091230006811514430600655313559178000208                                                                           
3540010012174522112018000050000000000012780059609123000681                                                                                                                
353LWH       0000100000001609800000000004041703122018596091230006813359251000449413559178000208                                                                           
3540010012172822112018000120000000000033713359609123000681                                                                                                                
3540010012173222112018000030000000000001925059609123000681                                                                                                                
3540010012177622112018000370000000000013066159609123000681                                                                                                                
3540010012177922112018000010000000000000644059609123000681                                                                                                                
3540010012178722112018000060000000000003249059609123000681                                                                                                                
3540010012178922112018000610000000000029537859609123000681                                                                                                                
3540010012179522112018000010000000000001647059609123000681                                                                                                                
3540010012179622112018000060000000000003850059609123000681                                                                                                                
3540010012180322112018000220000000000126804759609123000681                                                                                                                
3540010012180822112018000010000000000000479559609123000681                                                                                                                
3540010012180922112018000010000000000000863159609123000681                                                                                                                
3540010012181022112018000020000000000000625559609123000681                                                                                                                
3540010012181122112018000010000000000000383659609123000681                                                                                                                
3540010012181622112018000180000000000042305459609123000681                                                                                                                
3540010012181922112018000010000000000003926859609123000681                                                                                                                
3540010012182222112018000060000000000030349659609123000681                                                                                                                
3540010012184122112018000010000000000002129659609123000681                                                                                                                
3540010012184222112018000100000000000002192059609123000681                                                                                                                
353LWH       0000100000001609900000000001750103122018596091230006813359251000350113559178000208                                                                           
3540010012177122112018000030000000000001320059609123000681                                                                                                                
3540010012177822112018000010000000000002963859609123000681                                                                                                                
3540010012179122112018000050000000000009760759609123000681                                                                                                                
3540010012181222112018000030000000000007853659609123000681                                                                                                                
3540010012183522112018000010000000000000317859609123000681                                                                                                                
353LWH       0000100000001610000000000002545003122018596091230006813359251004479813559178000208                                                                           
3540010012175922112018000010000000000002051859609123000681                                                                                                                
3540010012176422112018000020000000000002347059609123000681                                                                                                                
3540010012176522112018000010000000000000589259609123000681                                                                                                                
3540010012176622112018000010000000000002110459609123000681                                                                                                                
3540010012176822112018000020000000000031381059609123000681                                                                                                                
3540010012176922112018000010000000000001971959609123000681                                                                                                                
3540010012177322112018001200000000000021327059609123000681                                                                                                                
3540010012177522112018000030000000000003224059609123000681                                                                                                                
3540010012179922112018000060000000000032000059609123000681                                                                                                                
3540010012181322112018000010000000000001570559609123000681                                                                                                                
3540010012181422112018000010000000000000523559609123000681                                                                                                                
3540010012181522112018000010000000000000523559609123000681                                                                                                                
3540010012182522112018000030000000000021340859609123000681                                                                                                                
3540010012182622112018000010000000000000790459609123000681                                                                                                                
353LWH       0000100000001610100000000004426403122018596091230006813359251001640913559178000208                                                                           
3540010012180022112018000780000000000390205459609123000681                                                                                                                
3540010012180122112018001300000000000095585059609123000681                                                                                                                
3540010012180522112018000460000000000081026659609123000681                                                                                                                
3540010012182122112018000030000000000006723559609123000681                                                                                                                
3540010012182422112018000190000000000020697359609123000681                                                                                                                
3540010012183422112018000790000000000074307559609123000681                                                                                                                
353LWH       0000100000001610200000000001953103122018596091230006813359251000341213559178000208                                                                           
3540010012176322112018000030000000000012816059609123000681                                                                                                                
3540010012176722112018000030000000000012816059609123000681                                                                                                                
3540010012177222112018000050000000000004224059609123000681                                                                                                                
3540010012177422112018000020000000000008010059609123000681                                                                                                                
3540010012178022112018000150000000000003039059609123000681                                                                                                                
3540010012178622112018000100000000000000616259609123000681                                                                                                                
3540010012181722112018000060000000000007853659609123000681                                                                                                                
3540010012182022112018000010000000000004239059609123000681                                                                                                                
353LWH       0000100000001610300000000003314503122018596091230006813359251004010513559178000208                                                                           
3540010012185023112018000060000000000002689059609123000681                                                                                                                
3540010012185423112018000110000000000005091059609123000681                                                                                                                
3540010012187723112018000020000000000004806059609123000681                                                                                                                
353LWH       0000100000001610400000000002214503122018596091230006813359251004479813559178000208                                                                           
3540010012185223112018000070000000000003122659609123000681                                                                                                                
3540010012187623112018000020000000000000303959609123000681                                                                                                                
353LWH       0000100000001610500000000001459503122018596091230006813359251001640913559178000208                                                                           
3540010012184523112018000070000000000003226859609123000681                                                                                                                
3540010012184623112018000060000000000002689059609123000681                                                                                                                
3540010012184823112018000010000000000000268959609123000681                                                                                                                
3540010012185723112018000220000000000010182059609123000681                                                                                                                
3540010012185823112018000110000000000005256059609123000681                                                                                                                
353LWH       0000100000001610600000000004256103122018596091230006813359251003154813559178000208                                                                           
3540010012178426112018000010000000000000722859609123000681                                                                                                                
3540010012178526112018000010000000000002401259609123000681                                                                                                                
3540010012180626112018001000000000000084082459609123000681                                                                                                                
3540010012184026112018000010000000000000631659609123000681                                                                                                                
3540010012185626112018000010000000000000480459609123000681                                                                                                                
3540010012186426112018000010000000000000803659609123000681                                                                                                                
3540010012187826112018000020000000000004948959609123000681                                                                                                                
353LWH       0000100000001610700000000005536403122018596091230006813359251000341213559178000208                                                                           
3540010012186326112018000060000000000019224059609123000681                                                                                                                
3540010012186726112018000080000000000007171059609123000681                                                                                                                
3540010012190826112018000430000000000090599659609123000681                                                                                                                
3540010012190926112018000010000000000016546859609123000681                                                                                                                
3540010012191826112018000020000000000030408059609123000681                                                                                                                
3540010012191926112018001240000000000195267759609123000681                                                                                                                
353LWH       0000100000001610800000000006315003122018596091230006813359251000350113559178000208                                                                           
3540010012186926112018000010000000000009231059609123000681                                                                                                                
3540010012187326112018000010000000000024099259609123000681                                                                                                                
3540010012189526112018002020000000000247353059609123000681                                                                                                                
3540010012189626112018000010000000000000273459609123000681                                                                                                                
3540010012190126112018000100000000000047899859609123000681                                                                                                                
3540010012190226112018000020000000000005890059609123000681                                                                                                                
3540010012190726112018000380000000000167438859609123000681                                                                                                                
3540010012192026112018001030000000000125807059609123000681                                                                                                                
3540010012192226112018000910000000000129221359609123000681                                                                                                                
353LWH       0000100000001610900000000007593803122018596091230006813359251000449413559178000208                                                                           
3540010012185126112018000060000000000002689059609123000681                                                                                                                
3540010012185926112018000060000000000002545559609123000681                                                                                                                
3540010012187026112018000110000000000046299659609123000681                                                                                                                
3540010012187126112018000250000000000043711259609123000681                                                                                                                
3540010012187926112018000080000000000002752059609123000681                                                                                                                
3540010012188326112018000100000000000005666059609123000681                                                                                                                
3540010012188526112018000010000000000000660259609123000681                                                                                                                
3540010012188826112018000410000000000069940659609123000681                                                                                                                
3540010012188926112018000020000000000003800059609123000681                                                                                                                
3540010012189126112018000030000000000053214059609123000681                                                                                                                
3540010012189226112018000040000000000006166359609123000681                                                                                                                
3540010012189426112018000150000000000028257259609123000681                                                                                                                
3540010012189726112018002150000000000263038859609123000681                                                                                                                
3540010012189826112018000300000000000036094859609123000681                                                                                                                
3540010012189926112018000150000000000007639659609123000681                                                                                                                
3540010012190026112018000380000000000066924059609123000681                                                                                                                
3540010012190326112018000150000000000111474759609123000681                                                                                                                
3540010012190426112018000230000000000028556259609123000681                                                                                                                
3540010012190626112018000400000000000097970459609123000681                                                                                                                
3540010012191626112018000010000000000000094959609123000681                                                                                                                
3540010012192326112018000010000000000000479559609123000681                                                                                                                
3540010012192426112018000010000000000024767059609123000681                                                                                                                
353LWH       0000100000001611000000000002197403122018596091230006813359251001640913559178000208                                                                           
3540010012191527112018000020000000000014458359609123000681                                                                                                                
3540010012192127112018000010000000000001723059609123000681                                                                                                                
3540010012193327112018000380000000000063515059609123000681                                                                                                                
353LWH       0000100000001611100000000002384903122018596091230006813359251004479813559178000208                                                                           
3540010012188227112018000150000000000064444059609123000681                                                                                                                
353LWH       0000100000001611200000000003575003122018596091230006813359251000082013559178000208                                                                           
3540010012177727112018000010000000000000627959609123000681                                                                                                                
3540010012178327112018000110000000000022084459609123000681                                                                                                                
3540010012178827112018000060000000000001829259609123000681                                                                                                                
3540010012180427112018000230000000000026947459609123000681                                                                                                                
3540010012186627112018000170000000000008342459609123000681                                                                                                                
3540010012186827112018000130000000000030233459609123000681                                                                                                                
3540010012191727112018000010000000000015747059609123000681                                                                                                                
353LWH       0000100000001611300000000001548603122018596091230006813359251003154813559178000208                                                                           
3540010012192628112018000010000000000001808159609123000681                                                                                                                
353LWH       0000100000001611400000000003670303122018596091230006813359251004010513559178000208                                                                           
3540010012193428112018000400000000000139953959609123000681                                                                                                                
353LWH       0000100000001611500000000003786103122018596091230006813359251004126813559178000208                                                                           
3540010012183828112018000010000000000002291259609123000681                                                                                                                
3540010012184328112018000010000000000000636559609123000681                                                                                                                
3540010012184428112018000050000000000006365059609123000681                                                                                                                
3540010012185528112018000060000000000002402059609123000681                                                                                                                
3540010012187528112018000010000000000000413959609123000681                                                                                                                
3540010012192728112018000150000000000050975359609123000681                                                                                                                
3540010012193528112018000200000000000056508459609123000681                                                                                                                
3540010012197628112018000100000000000004332059609123000681                                                                                                                
3540010012197928112018000020000000000000866459609123000681                                                                                                                
353LWH       0000100000001611600000000007853303122018596091230006813359251000074013559178000208                                                                           
3540010012183628112018000030000000000004956059609123000681                                                                                                                
3540010012183728112018000210000000000006330859609123000681                                                                                                                
3540010012184728112018000030000000000001344559609123000681                                                                                                                
3540010012186028112018000090000000000003746559609123000681                                                                                                                
3540010012186128112018000090000000000003746559609123000681                                                                                                                
3540010012186228112018000010000000000001263559609123000681                                                                                                                
3540010012186528112018000090000000000003058059609123000681                                                                                                                
3540010012187228112018000010000000000004120059609123000681                                                                                                                
3540010012188428112018000210000000000025338659609123000681                                                                                                                
3540010012188628112018000150000000000005160059609123000681                                                                                                                
3540010012188728112018000520000000000063547659609123000681                                                                                                                
3540010012189028112018001090000000000017190459609123000681                                                                                                                
3540010012194128112018000610000000000078259859609123000681                                                                                                                
3540010012195228112018000160000000000032160559609123000681                                                                                                                
3540010012196028112018000110000000000004139059609123000681                                                                                                                
3540010012196128112018000310000000000025305759609123000681                                                                                                                
3540010012196628112018000410000000000027004059609123000681                                                                                                                
3540010012196928112018000500000000000026385059609123000681                                                                                                                
3540010012197128112018000320000000000135180059609123000681                                                                                                                
3540010012197428112018001000000000000128699359609123000681                                                                                                                
353LWH       0000100000001611700000000001836203122018596091230006813359251001593313559178000208                                                                           
3540010012185328112018000020000000000000749359609123000681                                                                                                                
3540010012190528112018000040000000000001881459609123000681                                                                                                                
353LWH       0000100000001611800000000001794703122018596091230006813359251000490713559178000208                                                                           
3540010012184928112018000040000000000001613459609123000681                                                                                                                
3540010012189328112018000080000000000005263259609123000681                                                                                                                
3540010012191028112018000010000000000001819559609123000681                                                                                                                
3540010012191128112018000030000000000001032059609123000681                                                                                                                
3540010012191228112018000010000000000006987459609123000681                                                                                                                
3540010012191328112018000150000000000003039059609123000681                                                                                                                
3540010012191428112018000030000000000001032059609123000681                                                                                                                
3540010012192528112018000100000000000005441059609123000681                                                                                                                
353LWH       0000100000001611900000000002572203122018596091230006811514430600655313559178000208                                                                           
3540010012195628112018000010000000000000722059609123000681                                                                                                                
353LWH       0000100000001612000000000003000203122018596091230006811514430600795913559178000208                                                                           
3540010012195328112018000020000000000005112059609123000681                                                                                                                
3540010012195428112018000040000000000001291259609123000681                                                                                                                
3540010012195528112018000040000000000000764459609123000681                                                                                                                
353LWH       0000100000001612100000000001508803122018711871650001625960912300157213559178000208                                                                           
3540020002685829112018000150000000000013250071187165000162                                                                                                                
3540020002685929112018000150000000000004634071187165000162                                                                                                                
353LWH       0000100000001612200000000001621703122018711871650001625960912300076213559178000208                                                                           
3540020002685129112018000450000000000018854071187165000162                                                                                                                
3540020002685229112018000450000000000008760071187165000162                                                                                                                
3540020002685329112018000300000000000009268071187165000162                                                                                                                
3540020002685429112018000450000000000018387071187165000162                                                                                                                
353LWH       0000100000001612300000000001585103122018596091230006813359251003154813559178000208                                                                           
3540010012193729112018000010000000000000523559609123000681                                                                                                                
3540010012194929112018000070000000000010108059609123000681                                                                                                                
3540010012195929112018000010000000000000096459609123000681                                                                                                                
3540010012196229112018000010000000000000715059609123000681                                                                                                                
353LWH       0000100000001612400000000001103503122018596091230006813359251000082013559178000208                                                                           
3540010012196329112018000010000000000009597859609123000681                                                                                                                
353LWH       0000100000001612500000000003071503122018596091230006811514430600698713559178000208                                                                           
3540010012195729112018000200000000000023498059609123000681                                                                                                                
3540010012195829112018000010000000000017469059609123000681                                                                                                                
353LWH       0000100000001612600000000001472503122018596091230006815960912300157213559178000208                                                                           
3540010012188030112018000060000000000005880059609123000681                                                                                                                
353LWH       0000100000001612700000000001514503122018596091230006815960912300173413559178000208                                                                           
3540010012169430112018000060000000000001423859609123000681                                                                                                                
3540010012182730112018000010000000000001748359609123000681                                                                                                                
3540010012194830112018000010000000000000648659609123000681                                                                                                                
353LWH       0000100000001612800000000001519203122018596091230006815960912300076213559178000208                                                                           
3540010012169030112018000060000000000002727059609123000681                                                                                                                
3540010012169130112018000020000000000000080059609123000681                                                                                                                
3540010012169230112018000010000000000000615059609123000681                                                                                                                
3540010012169330112018000010000000000009846259609123000681                                                                                                                
3540010012192930112018000020000000000002335259609123000681                                                                                                                
3540010012194530112018000060000000000004777559609123000681                                                                                                                
3540010012194630112018000010000000000000352059609123000681                                                                                                                
3540010012194730112018000010000000000000615059609123000681                                                                                                                
3550001000000001540519                                                                                                                                                    