000ME - LW LOGISTICA SP               SP EQUIP DE PROT AO TRAB E MRO LTDA1503181034COB150310340                                                                           
350COBRA150310340                                                                                                                                                         
35113559178000119LW LOGISTICA E TRANSPORTES LTDA (ME-SP)                                                                                                                  
352MEX       0UNI02018000341503201829032019000000000245000COB00000000002940600000000000000029032019000000000000000                                   0000 0000000000  I   
353MEX       0000100000000898400000000001884802032018596091230018153359251004380513559178000119                                                                           
3540010005394502032018000030000000000003212859609123001815                                                                                                                
3540010005395802032018000010000000000011236859609123001815                                                                                                                
3540010005395902032018000030000000000008479059609123001815                                                                                                                
3540010005396202032018000050000000000006425659609123001815                                                                                                                
3540010005396402032018000010000000000005632259609123001815                                                                                                                
3540010005396602032018000010000000000005364059609123001815                                                                                                                
3540010005397202032018000010000000000005364059609123001815                                                                                                                
3540010005397302032018000010000000000005364059609123001815                                                                                                                
3540010005397402032018000010000000000005364059609123001815                                                                                                                
3540010005397502032018000010000000000003210059609123001815                                                                                                                
3540010005397602032018000030000000000006143559609123001815                                                                                                                
353MEX       0000100000000898600000000001884602032018596091230018153359251002204213559178000119                                                                           
3540010005394602032018000010000000000011784059609123001815                                                                                                                
3540010005394702032018000020000000000007519359609123001815                                                                                                                
3540010005394802032018000010000000000000244259609123001815                                                                                                                
3540010005394902032018000010000000000005995059609123001815                                                                                                                
3540010005395002032018000010000000000005995059609123001815                                                                                                                
3540010005395102032018000050000000000004244159609123001815                                                                                                                
3540010005395202032018000050000000000005254659609123001815                                                                                                                
3540010005395302032018000050000000000002137259609123001815                                                                                                                
3540010005395402032018000010000000000003117459609123001815                                                                                                                
3540010005395502032018000050000000000003422559609123001815                                                                                                                
3540010005395602032018000100000000000006981959609123001815                                                                                                                
3540010005395702032018000010000000000003515259609123001815                                                                                                                
3540010005396002032018000010000000000000976859609123001815                                                                                                                
3540010005396302032018000010000000000000178859609123001815                                                                                                                
3540010005396502032018000010000000000013410059609123001815                                                                                                                
3540010005396702032018000010000000000001341059609123001815                                                                                                                
3540010005396802032018000010000000000008046059609123001815                                                                                                                
3540010005396902032018000010000000000008046059609123001815                                                                                                                
3540010005397002032018000010000000000008046059609123001815                                                                                                                
3540010005397102032018000010000000000001072859609123001815                                                                                                                
3540010005397702032018000010000000000009596759609123001815                                                                                                                
3540010005397802032018000150000000000037218059609123001815                                                                                                                
3540010005397902032018000060000000000019637059609123001815                                                                                                                
3540010005398002032018000010000000000002809259609123001815                                                                                                                
3540010005398102032018000010000000000004749059609123001815                                                                                                                
353MEX       0000100000000901200000000001884605032018596091230018153359251002204213559178000119                                                                           
3540010005398205032018000010000000000001609259609123001815                                                                                                                
3540010005398305032018000020000000000003511559609123001815                                                                                                                
3540010005398405032018000010000000000000460459609123001815                                                                                                                
3540010005398505032018000010000000000007120459609123001815                                                                                                                
3540010005398605032018000010000000000001598759609123001815                                                                                                                
3540010005398705032018000010000000000000720259609123001815                                                                                                                
3540010005398805032018000080000000000014361159609123001815                                                                                                                
353MEX       0000100000000901300000000001884607032018596091230018153359251004380513559178000119                                                                           
3540010005399807032018000020000000000006926559609123001815                                                                                                                
3540010005400207032018000020000000000004744559609123001815                                                                                                                
3540010005400307032018000010000000000001897859609123001815                                                                                                                
3540010005400407032018000020000000000004744559609123001815                                                                                                                
3540010005401407032018000010000000000014554559609123001815                                                                                                                
3540010005401507032018000010000000000015472059609123001815                                                                                                                
3540010005401607032018000010000000000001802059609123001815                                                                                                                
3540010005401707032018000010000000000009955259609123001815                                                                                                                
3540010005402907032018000010000000000000807059609123001815                                                                                                                
353MEX       0000100000000901400000000001884607032018596091230018153359251002620013559178000119                                                                           
3540010005398907032018000030000000000010478059609123001815                                                                                                                
3540010005399307032018000020000000000005693459609123001815                                                                                                                
3540010005399707032018000010000000000000807559609123001815                                                                                                                
353MEX       0000100000000901500000000001884607032018596091230018153359251002204213559178000119                                                                           
3540010005399007032018000020000000000007519359609123001815                                                                                                                
3540010005399107032018000060000000000004624059609123001815                                                                                                                
3540010005399207032018000010000000000003879259609123001815                                                                                                                
3540010005399507032018000020000000000007365059609123001815                                                                                                                
3540010005399607032018000020000000000003808859609123001815                                                                                                                
3540010005399907032018000040000000000001226759609123001815                                                                                                                
3540010005400007032018000010000000000000471059609123001815                                                                                                                
3540010005400107032018000010000000000017446459609123001815                                                                                                                
3540010005400507032018000010000000000007605659609123001815                                                                                                                
3540010005400607032018000010000000000008046059609123001815                                                                                                                
3540010005400707032018000010000000000001197359609123001815                                                                                                                
3540010005400807032018000010000000000007292059609123001815                                                                                                                
3540010005400907032018000080000000000013890059609123001815                                                                                                                
3540010005401107032018000010000000000002809259609123001815                                                                                                                
3540010005401307032018000100000000000014695859609123001815                                                                                                                
3540010005401807032018000020000000000008035559609123001815                                                                                                                
3540010005402807032018000010000000000001385359609123001815                                                                                                                
3540010005403007032018000140000000000013690059609123001815                                                                                                                
3540010005403107032018000010000000000001599059609123001815                                                                                                                
3540010005403207032018000010000000000007871159609123001815                                                                                                                
3540010005403307032018000020000000000003873059609123001815                                                                                                                
3540010005403507032018000010000000000000156059609123001815                                                                                                                
353MEX       0000100000000902100000000001884609032018596091230018153359251004380513559178000119                                                                           
3540010005404109032018000020000000000001445059609123001815                                                                                                                
3540010005405009032018000010000000000002630059609123001815                                                                                                                
3540010005405209032018000010000000000003259859609123001815                                                                                                                
3540010005405409032018000040000000000003775359609123001815                                                                                                                
353MEX       0000100000000902200000000001884609032018596091230018153359251002204213559178000119                                                                           
3540010005403609032018000010000000000006237659609123001815                                                                                                                
3540010005403709032018000100000000000007225059609123001815                                                                                                                
3540010005403809032018000010000000000020880059609123001815                                                                                                                
3540010005403909032018000010000000000000542459609123001815                                                                                                                
3540010005404009032018000010000000000008120059609123001815                                                                                                                
3540010005404209032018000010000000000009456959609123001815                                                                                                                
3540010005404309032018000010000000000002043059609123001815                                                                                                                
3540010005404409032018000010000000000000681059609123001815                                                                                                                
3540010005404509032018000010000000000001021559609123001815                                                                                                                
3540010005404609032018000120000000000031732659609123001815                                                                                                                
3540010005404709032018000010000000000002043059609123001815                                                                                                                
3540010005404809032018000010000000000005540559609123001815                                                                                                                
3540010005404909032018000030000000000004630059609123001815                                                                                                                
3540010005405109032018000010000000000000340559609123001815                                                                                                                
3540010005405309032018000030000000000010607059609123001815                                                                                                                
3540010005405509032018000020000000000006001559609123001815                                                                                                                
353MEX       0000100000000902900000000001884612032018596091230018153359251004380513559178000119                                                                           
3540010005405712032018000020000000000004321259609123001815                                                                                                                
3540010005406412032018000030000000000003338959609123001815                                                                                                                
353MEX       0000100000000903000000000001884612032018596091230018153359251002620013559178000119                                                                           
3540010005405612032018000010000000000002630059609123001815                                                                                                                
353MEX       0000100000000903100000000001884612032018596091230018153359251002204213559178000119                                                                           
3540010005406112032018000010000000000000428459609123001815                                                                                                                
3540010005406212032018000010000000000002051759609123001815                                                                                                                
3540010005406312032018000010000000000001267659609123001815                                                                                                                
353MEX       0000100000000903800000000001884614032018596091230018153359251004380513559178000119                                                                           
3540010005406614032018000010000000000002701059609123001815                                                                                                                
3540010005407114032018000010000000000005402059609123001815                                                                                                                
3540010005407514032018000010000000000005402059609123001815                                                                                                                
3540010005407714032018000010000000000005402059609123001815                                                                                                                
3540010005407814032018000010000000000010804059609123001815                                                                                                                
3540010005407914032018000010000000000008103059609123001815                                                                                                                
3540010005408414032018000010000000000001852059609123001815                                                                                                                
3540010005409114032018000010000000000001341059609123001815                                                                                                                
3540010005409514032018000010000000000004465659609123001815                                                                                                                
353MEX       0000100000000903900000000001884614032018596091230018153359251002204213559178000119                                                                           
3540010005406514032018000010000000000001350559609123001815                                                                                                                
3540010005406714032018000010000000000005402059609123001815                                                                                                                
3540010005406814032018000010000000000003241259609123001815                                                                                                                
3540010005406914032018000010000000000004321659609123001815                                                                                                                
3540010005407014032018000010000000000005402059609123001815                                                                                                                
3540010005407214032018000010000000000000270159609123001815                                                                                                                
3540010005407314032018000010000000000002701059609123001815                                                                                                                
3540010005407414032018000010000000000006482459609123001815                                                                                                                
3540010005407614032018000010000000000020880059609123001815                                                                                                                
3540010005408014032018000010000000000045050059609123001815                                                                                                                
3540010005408114032018000300000000000055560059609123001815                                                                                                                
3540010005408214032018000010000000000004796059609123001815                                                                                                                
3540010005408314032018000400000000000004683059609123001815                                                                                                                
3540010005408514032018000010000000000002457659609123001815                                                                                                                
3540010005408614032018000030000000000009630059609123001815                                                                                                                
3540010005408714032018000010000000000001877459609123001815                                                                                                                
3540010005408814032018000010000000000001609259609123001815                                                                                                                
3540010005408914032018000010000000000026820059609123001815                                                                                                                
3540010005409014032018000010000000000002701059609123001815                                                                                                                
3540010005409414032018000010000000000002682059609123001815                                                                                                                
3540010005409614032018000010000000000000122759609123001815                                                                                                                
3540010005409714032018000030000000000001226759609123001815                                                                                                                
3540010005409814032018000400000000000055003059609123001815                                                                                                                
3540010005409914032018000110000000000031358259609123001815                                                                                                                
3550001000000000245000                                                                                                                                                    