000ME - LW LOGISTICA SP               SP EQUIP. PROTEC. AO TRAB. MRO LTDA1710171625COB171016250                                                                           
350COBRA171016250                                                                                                                                                         
35113559178000119LW LOGISTICA E TRANSPORTES LTDA (ME-SP)                                                                                                                  
352MEX       0UNI02017002711610201731102017000000001010647COB00000000012127700000000000000031102017000000000000000                                   0000 0000000000  I   
353MEX       0000100000000750000000000003585902102017596091230007625960912300173413559178000119                                                                           
3540010005862229092017000010000000000008800059609123000762                                                                                                                
3540010052856902102017000010000000000001243759609123000762                                                                                                                
3540010052891503102017000010000000000064719859609123000762                                                                                                                
353MEX       0000100000000750100000000004227202102017596091230007621353112400014513559178000119                                                                           
3540010005857325092017000010000000000004224959609123000762                                                                                                                
3540010005860628092017000010000000000005275659609123000762                                                                                                                
353MEX       0000100000000750200000000002560703102017596091230007623359251004266313559178000119                                                                           
3540010005855422092017000010000000000000714159609123000762                                                                                                                
3540010005856422092017000010000000000003682059609123000762                                                                                                                
3540010005857825092017000050000000000007660759609123000762                                                                                                                
3540010005859026092017000060000000000014728059609123000762                                                                                                                
3540010005861228092017000100000000000013410059609123000762                                                                                                                
3540010005862502102017000100000000000018983059609123000762                                                                                                                
353MEX       0000100000000750300000000006466103102017596091230007623359251000899613559178000119                                                                           
3540010005860227092017000690000000000139545659609123000762                                                                                                                
3540010005860327092017000010000000000002142059609123000762                                                                                                                
3540010005860728092017000040000000000014381459609123000762                                                                                                                
3540010005861028092017000010000000000006480059609123000762                                                                                                                
3540010005862702102017000010000000000019396059609123000762                                                                                                                
3540010005863302102017000010000000000004224959609123000762                                                                                                                
3540010005863402102017000010000000000004224959609123000762                                                                                                                
3540010005863602102017000010000000000004224959609123000762                                                                                                                
353MEX       0000100000000750400000000006006803102017596091230007623359251000090113559178000119                                                                           
3540010005859126092017000030000000000006890659609123000762                                                                                                                
3540010005861128092017000190000000000061753059609123000762                                                                                                                
353MEX       0000100000000750500000000003878804102017596091230007625960912300173413559178000119                                                                           
3540010005865503102017000450000000000098820059609123000762                                                                                                                
3540010005865603102017000390000000000086010059609123000762                                                                                                                
353MEX       0000100000000750700000000003650404102017596091230007623359251000759013559178000119                                                                           
3540010005863903102017000030000000000001260059609123000762                                                                                                                
353MEX       0000100000000751100000000005172905102017596091230007623393147800027513559178000119                                                                           
3540010005862402102017000020000000000007656059609123000762                                                                                                                
3540010005862602102017000210000000000104667159609123000762                                                                                                                
3540010005863502102017000010000000000006523759609123000762                                                                                                                
3540010005864003102017000810000000000243600059609123000762                                                                                                                
3540010005864303102017000010000000000002446459609123000762                                                                                                                
353MEX       0000100000000751200000000000921804102017596091230007626189125500077113559178000119                                                                           
3540010005866004102017000010000000000003688059609123000762                                                                                                                
353MEX       0000100000000751600000000007254106102017596091230007625960912300173413559178000119                                                                           
3540010002241704102017000010000000000004464059609123000762                                                                                                                
3540010005867004102017000010000000000000344859609123000762                                                                                                                
3540010005867105102017000120000000000018503059609123000762                                                                                                                
3540010005867205102017000010000000000001992059609123000762                                                                                                                
3540010005867305102017000600000000000033004859609123000762                                                                                                                
3540010005867405102017000660000000000051880059609123000762                                                                                                                
3540010005867505102017000660000000000046316059609123000762                                                                                                                
3540010005867605102017000290000000000048893759609123000762                                                                                                                
3540010005867705102017000390000000000004650059609123000762                                                                                                                
3540010005867805102017000100000000000036050059609123000762                                                                                                                
3540010005867905102017000090000000000025920059609123000762                                                                                                                
3540010005868005102017000010000000000003410059609123000762                                                                                                                
3540010005868105102017000010000000000024871659609123000762                                                                                                                
3540010005868205102017000040000000000017140559609123000762                                                                                                                
3540010005868705102017000010000000000023712059609123000762                                                                                                                
3540010005869205102017000120000000000022865059609123000762                                                                                                                
3540010005869305102017002740000000000220490059609123000762                                                                                                                
3540010005869405102017000010000000000026700059609123000762                                                                                                                
3540010005869505102017000050000000000001406059609123000762                                                                                                                
3540010005869706102017000060000000000003438059609123000762                                                                                                                
3540010024315704102017000420000000000063461859609123000762                                                                                                                
3540010052652504102017000010000000000000397059609123000762                                                                                                                
3540010052690704102017000010000000000011830059609123000762                                                                                                                
3540010052750504102017000030000000000000663259609123000762                                                                                                                
353MEX       0000100000000752000000000006511906102017596091230007623359251000090113559178000119                                                                           
3540010005850703102017002590000000000134929059609123000762                                                                                                                
3540010005864603102017000010000000000004224959609123000762                                                                                                                
3540010005864703102017000010000000000006099059609123000762                                                                                                                
3540010005866104102017000070000000000009638459609123000762                                                                                                                
3540010005866505102017000160000000000051739059609123000762                                                                                                                
3540010005868405102017000010000000000000536459609123000762                                                                                                                
353MEX       0000100000000752400000000006108206102017596091230007620233612400092513559178000119                                                                           
3540010005868905102017000070000000000005101059609123000762                                                                                                                
3540010005869005102017000720000000000091335459609123000762                                                                                                                
353MEX       0000100000000753200000000003564409102017596091230007625960912300173413559178000119                                                                           
3540010005870406102017000010000000000059440059609123000762                                                                                                                
3540010052989006102017000010000000000007241059609123000762                                                                                                                
353MEX       0000100000000753300000000006063809102017596091230007621353112400014513559178000119                                                                           
3540010005863102102017000010000000000004224959609123000762                                                                                                                
3540010005863202102017000010000000000006099059609123000762                                                                                                                
3540010005865203102017000010000000000006099059609123000762                                                                                                                
3540010005865905102017000010000000000003754059609123000762                                                                                                                
3540010005868305102017000090000000000041559059609123000762                                                                                                                
3540010005869906102017000010000000000022525059609123000762                                                                                                                
353MEX       0000100000000754900000000003841610102017596091230007623359251004517413559178000119                                                                           
3540010005870806102017001040000000000171887659609123000762                                                                                                                
353MEX       0000100000000755100000000001058210102017596091230007626106468900517113559178000119                                                                           
3540010005873110102017000080000000000037740059609123000762                                                                                                                
3540010005873210102017000280000000000018983059609123000762                                                                                                                
353MEX       0000100000000757800000000007375911102017596091230007623393147800027513559178000119                                                                           
3540010005864003102017000810000000000243600059609123000762                                                                                                                
3540010005870506102017000010000000000011773359609123000762                                                                                                                
3540010005870706102017000010000000000000408959609123000762                                                                                                                
3540010005870906102017000150000000000018864059609123000762                                                                                                                
3540010005871106102017000080000000000032572059609123000762                                                                                                                
3540010005871206102017000060000000000022239059609123000762                                                                                                                
3540010005871309102017000010000000000001258059609123000762                                                                                                                
3540010005871409102017000100000000000012288059609123000762                                                                                                                
3540010005871509102017000010000000000006523759609123000762                                                                                                                
3540010005872310102017000010000000000001267659609123000762                                                                                                                
3540010005872410102017000030000000000011262059609123000762                                                                                                                
3540010005872810102017000310000000000082101459609123000762                                                                                                                
353MEX       0000100000000757900000000002186711102017596091230007623359251004266313559178000119                                                                           
3540010005870106102017000020000000000006774059609123000762                                                                                                                
3540010005870306102017000010000000000000418359609123000762                                                                                                                
3540010005873410102017000010000000000001676059609123000762                                                                                                                
353MEX       0000100000000758000000000004237811102017596091230007623359251000759013559178000119                                                                           
3540010005870206102017000010000000000022871059609123000762                                                                                                                
3540010005870606102017000020000000000000639059609123000762                                                                                                                
3540010005871609102017000010000000000006523759609123000762                                                                                                                
3540010005872710102017000170000000000024841559609123000762                                                                                                                
353MEX       0000100000000758200000000003794811102017596091230007625960912300173413559178000119                                                                           
3540010005871709102017000010000000000025867559609123000762                                                                                                                
3540010005871809102017000110000000000040880859609123000762                                                                                                                
3540010005871909102017000260000000000021654059609123000762                                                                                                                
3540010005872009102017000790000000000064850059609123000762                                                                                                                
353MEX       0000100000000758500000000005969911102017596091230007623359251000090113559178000119                                                                           
3540010005871006102017000010000000000000628859609123000762                                                                                                                
3540010005872110102017000010000000000000349859609123000762                                                                                                                
3540010005872210102017000220000000000028656059609123000762                                                                                                                
3540010005873010102017000010000000000003765059609123000762                                                                                                                
3540010005873310102017000030000000000025100059609123000762                                                                                                                
353MEX       0000100000000758600000000006626811102017596091230007623359251000899613559178000119                                                                           
3540010005860227092017000690000000000139545659609123000762                                                                                                                
3540010005872510102017000950000000000099136759609123000762                                                                                                                
000ME - LW LOGISTICA SP               SP EQUIP. PROTEC. AO TRAB. MRO LTDA1710171625COB171016250                                                                           
350COBRA171016250                                                                                                                                                         
35113559178000119LW LOGISTICA E TRANSPORTES LTDA (ME-SP)                                                                                                                  
352MEX       0UNI02017002731610201731102017000000000085451COB00000000001025400000000000000031102017000000000000000                                   0000 0000000000  I   
353MEX       0000100000000752500000000008545106102017596091230007623359251000899613559178000119                                                                           
3540010005860227092017000690000000000139545659609123000762                                                                                                                
3540010005864103102017000010000000000003033759609123000762                                                                                                                
3540010005864203102017000010000000000003033759609123000762                                                                                                                
3540010005864403102017000010000000000006523759609123000762                                                                                                                
3540010005864503102017000010000000000001087359609123000762                                                                                                                
3540010005864803102017000010000000000001087359609123000762                                                                                                                
3540010005864903102017000010000000000004224959609123000762                                                                                                                
3540010005865003102017000010000000000004224959609123000762                                                                                                                
3540010005865103102017000010000000000006523759609123000762                                                                                                                
3540010005865303102017000010000000000008318359609123000762                                                                                                                
3540010005865704102017000050000000000018019259609123000762                                                                                                                
3540010005866305102017000010000000000003368459609123000762                                                                                                                
3540010005866405102017000020000000000011244059609123000762                                                                                                                
3540010005866605102017000060000000000000442059609123000762                                                                                                                
3540010005866705102017000060000000000000442059609123000762                                                                                                                
3540010005866805102017000060000000000000442059609123000762                                                                                                                
3540010005866905102017000020000000000002400059609123000762                                                                                                                
3540010005868505102017001240000000000084378259609123000762                                                                                                                
3550002000000001096098                                                                                                                                                    